S01900005465726D6F6375706C615F4B5F4F4C45442E73726563C2
S11300000C9400060C941D060C941D060C941D06FD
S11300100C941D060C9412070C941D060C941D06DA
S11300200C941D060C94E2060C941D060C941D06FB
S11300300C941D060C941D060C941D060C941D06B0
S11300400C941D060C941D060C941D060C941D06A0
S11300500C941D060C941D060C941D060C941D0690
S11300600C941D060C941D066E616E00696E66008C
S113007000407A10F35A00A0724E18090010A5D45B
S1130080E80000E87648170000E40B54020000CAB8
S11300909A3B000000E1F5050000809698000000FE
S11300A040420F000000A08601000000102700005D
S11300B00000E803000000006400000000000A00E3
S11300C0000000000100000000002C76D888DC67E6
S11300D04F0823DFC1DFAE59E1B1B796E5E3E4533E
S11300E0C63AE651997696E8E6C28426EB898C9B5B
S11300F062ED407C6FFCEFBC9C9F40F2BAA56FA5FB
S1130100F490055A2AF75C936B6CF9676DC11BFC7C
S1130110E0E40D47FEF520E6B500D0ED902E030097
S1130120943577050080841E080000204E0A0000E4
S113013000C80C333333330F986E12831141EF8DA3
S11301402114893BE65516CFFEE6DB18D1844B38E3
S11301501BF77C1D901DA4BBE424203284725E2214
S11301608100C9F124ECA1E53D2745723A202564BC
S113017020202000252E326620002564200024241F
S113018064252E32662364252E32662351510D0ACE
S113019000546D3A20300054643A203000436F72AA
S11301A0746F20474E440D0A00436F72746F2056DB
S11301B043430D0A00436972637569746F20416299
S11301C0696572746F0D0A004572726F722E2E2E5D
S11301D00D0A00496E696369616E646F0D0A000758
S11301E0000000000000000000000000000000000B
S11301F000000000000000000000030000FC06FCFA
S113020006000000000000000000000000000000E4
S11302100000000000051E001E0000001E001E005D
S113022000000000000000000000000000000000CA
S1130230088001B007F001BC01B007F001BC013037
S113024000000000000000000000000738027C04E9
S11302504404FF1F4404C407880300000000000096
S11302600000000000000D38007C00440044027CC3
S113027001B8004000A003D00748044004C0078030
S1130280030A0000B803FC0744044404FC04B80354
S11302900007C005C0040000000000000300001EA9
S11302A0001E00000000000000000000000000002C
S11302B000000000000000050000F007FC1F0E38DD
S11302C00220000000000000000000000000000008
S11302D0000005000002200E38FC1FF0070000009B
S11302E00000000000000000000000000007000003
S11302F0140008003E003E00080014000000000046
S11303000000000000000000090000000040004060
S1130310004000F8034000400040000000000000DE
S1130320000000030018001E00060000000000008A
S11303300000000000000000000000000000054074
S113034000400040004000400000000000000000A9
S1130350000000000000000000030000000600068A
S11303600000000000000000000000000000000089
S11303700000000006001800068001600018000656
S11303800000000000000000000000000000000762
S1130390F803FC07040404040404FC07F803000045
S11303A0000000000000000000000700000804082E
S11303B004FC07FC07000400040000000000000027
S11303C00000000000071804040604078405C404A0
S11303D07C0438040000000000000000000000005D
S11303E00708020404440444044404FC07B803005A
S11303F0000000000000000000000007C000A00092
S113040090008800FC07FC0780000000000000004A
S11304100000000000000700023C043C0424042403
S113042004E407C403000000000000000000000012
S11304300007F003F8072C0424042404E407C00391
S11304400000000000000000000000000704000499
S1130450000407C407F4003C000C00000000000086
S11304600000000000000007B803FC074404440433
S11304704404FC07B8030000000000000000000072
S11304800000077800FC04840484048406FC03F858
S11304900100000000000000000000000003000054
S11304A030063006000000000000000000000000DC
S11304B00000000000000000030018301E30060099
S11304C00000000000000000000000000000000028
S11304D0000000090000C000C0002001200110023B
S11304E010020804080400000000000000000900D5
S11304F00090009000900090009000900090009078
S113050000000000000000000009000008040804C6
S11305101002100220012001C000C00000000000F1
S1130520000000000608000400C406E4063C0018AD
S113053000000000000000000000000000000009AE
S1130540F0030804E409F40B140AF409F40B080A90
S1130550F0010000000000000000090006C007F0E0
S113056001BC008C00BC00F001C0070006000000C4
S1130570000000000007FC07FC0744044404440492
S1130580FC07B803000000000000000000000000A9
S113059007F803FC07040404040404040418030017
S11305A0000000000000000000000008FC07FC0739
S11305B00404040404040C06F803F0010000000021
S11305C000000000000006FC07FC07440444044447
S11305D0040404000000000000000000000000000B
S11305E00006FC07FC07440044004400040000002B
S11305F000000000000000000000000007F803FCF9
S113060007040404044404C407D8070000000000DD
S11306100000000000000008FC07FC074000400048
S113062040004000FC07FC07000000000000000040
S11306300000040404FC07FC07040400000000009C
S1130640000000000000000000000000000500049D
S113065004040404FC07FC03000000000000000084
S1130660000000000000000007FC07FC07E000B0E9
S11306700118030C06040400000000000000000040
S113068000000006FC07FC0700040004000400044A
S113069000000000000000000000000000000AFC50
S11306A0070C003C00F000C003C00030000C00FC4C
S11306B007FC0700000000000007FC070C003C00DA
S11306C0F000C0030007FC07000000000000000069
S11306D00000000008F803FC0704040404040404F4
S11306E004FC07F8030000000000000000000007FD
S11306F0FC07FC07840084008400FC0078000000F0
S11307000000000000000000000008F803FC0704DB
S11307100404040404040CFC1FF81300000000008B
S1130720000000000008FC07FC074400C400C401EA
S11307307C033806000400000000000000000000F4
S11307400738037C04440444044404C407980300A5
S11307500000000000000000000000060400040087
S1130760FC07FC0704000400000000000000000077
S113077000000000000007FC03FC07000400040064
S113078004FC07FC0300000000000000000000005F
S113079000081C007C00E00180078007E0017C0069
S11307A01C00000000000000000000000C3C00FCE5
S11307B001C0078007E0017C007C00E0018007C0E5
S11307C007FC013C000000080C061C07B001E00017
S11307D0E000B0011C070C0600000000000000004F
S11307E00000080C003C007000C007C00770003C0B
S11307F0000C0000000000000000000000060407D8
S11308008407C40464043C041C04000000000000C9
S11308100000000000000000050000FE1FFE1F0293
S113082010021000000000000000000000000000A2
S11308300000000606001800600080010006001891
S1130840000000000000000000000000000005009F
S11308500002100210FE1FFE1F0000000000000036
S1130860000000000000000000090000200010004B
S1130870080004000400080010002000000000002C
S1130880000000000800100010001000100010000C
S1130890100010001000000000000000000000051F
S11308A00000000002000600040000000000000038
S11308B000000000000000000000070003A00790F3
S11308C00490049004F007E007000000000000001A
S11308D0000000000007FE07FE07200410041004B7
S11308E0F007E0030000000000000000000000002A
S11308F006E003F0071004100410042002000000B6
S1130900000000000000000000000007E003F00702
S1130910100410041002FE07FE070000000000008F
S113092000000000000007E003F00790049004902A
S113093004F004E0020000000000000000000000D9
S113094000051000FC07FE07120002000000000072
S113095000000000000000000000000007E013F0A9
S113096027102410241022F03FF01F000000000084
S11309700000000000000007FE07FE072000100032
S11309801000F007E0070000000000000000000075
S1130990000002F607F60700000000000000000057
S11309A00000000000000000000000000003102010
S11309B0F63FF61F000000000000000000000000E9
S11309C0000000000000000006FE07FE07C00160F2
S11309D003300610040000000000000000000000C6
S11309E000000002FE07FE070000000000000000F7
S11309F000000000000000000000000000000AF0F9
S1130A0007F00710001000F007E00710001000F0D6
S1130A1007E00700000000000007F007F0072000CF
S1130A2010001000F007E0070000000000000000C4
S1130A300000000007E003F007100410041004F0A5
S1130A4007E00300000000000000000000000007B1
S1130A50F03FF03F200410041004F007E00300000E
S1130A600000000000000000000007E003F0071091
S1130A700410041002F03FF03F00000000000000EA
S1130A80000000000005F007F007200030003000EF
S1130A900000000000000000000000000000000052
S1130AA0066002F004D004900590072003000000C3
S1130AB00000000000000000000000051000FC031E
S1130AC0FC071004100400000000000000000000F7
S1130AD000000000000007F003F007000400040019
S1130AE002F007F007000000000000000000000012
S1130AF000077000F001800700068007F001700015
S1130B000000000000000000000000000A3000F0B7
S1130B1001C0070007F000F0000007C007F0013033
S1130B20000000000000000630067007C001C0018C
S1130B307007300600000000000000000000000004
S1130B400000077000F0018037003E800FF0017054
S1130B500000000000000000000000000006100675
S1130B6010079005D0047004300400000000000059
S1130B7000000000000000000640004000FC0FBE22
S1130B801F0210021000000000000000000000001E
S1130B900000000400000000FE1FFE1F0000000013
S1130BA00000000000000000000000000000060239
S1130BB0100210BE1FFC0F400040000000000000A7
S1130BC00000000000000000000AC0016000600096
S1130BD06000E000C001800180018001E0000000AD
S1130BE00000000004FE07FE0702040204000000E7
S1130BF000000000000000000000000000000000F1
S1130C0011241FBECFEFD8E0DEBFCDBF11E0A0E0BE
S1130C10B1E0EAE7FFE202C005900D92A037B10708
S1130C20D9F725E0A0E7B1E001C01D92A038B207D2
S1130C30E1F70E94B8080C94BB170C940000EF92E3
S1130C40FF920F931F93CF93DF93CDB7DEB7C456B4
S1130C50D1090FB6F894DEBF0FBECDBF65E086E1C3
S1130C600E94140C0F2EF8E1EF2EF1E0FF2EF02D70
S1130C70F701658D768D878D90A10E94BD107F93BD
S1130C806F938AE791E09F938F938E010F5F1F4FBD
S1130C901F930F930E943B17C8010E94520F65E0F7
S1130CA085E50E94140CEFE5F1E082858F93818540
S1130CB08F9380858F9387818F9384E791E09F93AF
S1130CC08F931F930F930E943B17C8010E94520FEA
S1130CD060E282E30E94140CF70161A172A183A176
S1130CE094A10E94BD107F936F938AE691E09F9335
S1130CF08F931F930F930E943B17C8010E94520FBA
S1130D000E94DE0B0FB6F894DEBF0FBECDBFCC59E8
S1130D10DF4F0FB6F894DEBF0FBECDBFDF91CF918A
S1130D201F910F91FF90EF9008958F929F92AF9231
S1130D30BF92DF92EF92FF920F931F93CF93DF93B3
S1130D407C0190917501992389F14A015B01D12CB1
S1130D50E70128E0D29EC00DD11D1124088119811C
S1130D600115110521F4EE81FF8109951AC08A81CC
S1130D709B81AC81BD81A5019401281B390B4A0BD1
S1130D805B0BDA01C90120E030E080179107A2076C
S1130D90B30738F0EE81FF8109958A829B82AC8289
S1130DA0BD82D39480917501D81690F2DF91CF91D2
S1130DB01F910F91FF90EF90DF90BF90AF909F90A5
S1130DC08F9008951F920F920FB60F9211248F9354
S1130DD09F93AF93BF93809174018F5F809374014D
S1130DE0809174018230A9F4809170019091710115
S1130DF0A0917201B09173010196A11DB11D809360
S1130E00700190937101A0937201B09373011092D9
S1130E107401BF91AF919F918F910F900FBE0F906E
S1130E201F9018951F920F920FB60F921124CF9214
S1130E30DF92EF92FF922F933F934F935F936F93C1
S1130E407F938F939F93AF93BF93CF93DF93EF934E
S1130E50FF93F8944A9B10C0C8E1D1E020E030E051
S1130E6040EA50E46D8D7E8D8F8D98A10E94DA0F3B
S1130E706D8F7E8F8F8F98A34B9B25C0C0903501BB
S1130E80D0903601E0903701F090380120E030E056
S1130E90A901C701B6010E949E1118164CF420E066
S1130EA030E040EA50E4C701B6010E94D90F03C004
S1130EB060E070E0CB01609335017093360180935C
S1130EC03701909338017894FF91EF91DF91CF919E
S1130ED0BF91AF919F918F917F916F915F914F914E
S1130EE03F912F91FF90EF90DF90CF900F900FBE26
S1130EF00F901F9018958AB1837F8AB988E08093F8
S1130F00690084E0809368008CE080936D0008950C
S1130F10E0EBF0E08081816A808382E08093B1001D
S1130F2081E0809370001092B20084B5816A84BD20
S1130F3085B5836085BD569A089584B18C6284B961
S1130F4083E58CBD2A9A08958F929F92AF92BF92A7
S1130F50CF92DF92EF92FF920F931F93CF93DF9381
S1130F60EC013A81E881F981208181E090E002C0BE
S1130F70880F991F3A95E2F7809590958223808394
S1130F801B821C821D821E8224E01EBC0DB407FE3F
S1130F90FDCF3EB58B819C81AD81BE81BA2FA92F37
S1130FA0982F8827830F911DA11DB11D8B839C83CE
S1130FB0AD83BE83215049F73A81E881F9812081CC
S1130FC081E090E002C0880F991F3A95E2F7822BE6
S1130FD080838B809C80AD80BE806501EE24FF24DD
S1130FE08601C60181709927892B51F168EC71E063
S1130FF080E00E94610BC40181709927892B39F02C
S113100065EB71E080E00E94610B81E08F87C40191
S113101082709927892B39F069EA71E080E00E9497
S1131020610B82E08F8784E088229924892849F023
S11310306DE971E080E00E94610B83E08F8701C05D
S11310401F868CEFC822E894D7F8D694C794D69418
S1131050C794B60180E090E00E94EC1020E030E0FC
S113106040E85EE30E94A31111232CF06F8378877C
S113107089879A8707C0DC01CB01B0588F83988792
S1131080A987BA878F85DF91CF911F910F91FF9028
S1131090EF90DF90CF90BF90AF909F908F90089586
S11310A00F931F93CF93DF93CDB7DEB7C456D10907
S11310B00FB6F894DEBF0FBECDBF8FE591E00E945E
S11310C0A407E8E1F1E080A18F93878D8F93868D4B
S11310D08F93858D8F93EFE5F1E082858F938185E2
S11310E08F9380858F9387818F938EE791E09F9371
S11310F08F938E010F5F1F4F1F930F930E943B1717
S1131100B80180E00E94490B0FB6F894DEBF0FBE11
S1131110CDBFCC59DF4F0FB6F894DEBF0FBECDBFA5
S1131120DF91CF911F910F9108950F9320E04EE02E
S11311306DE08FED91E00E94EC0D65E081E00E948E
S1131140140C87E991E00E947A0F65E08CE30E9419
S1131150140C81E991E00E947A0F0FEF2FE34FE71F
S113116064E181E00E94910D0E94DE0B0F910895CD
S11311700E947B070E9488070E949D0768E070E038
S113118080E00E94370B63ED71E080E00E94610B08
S11311900E941D0C0E949508789483E08093750149
S11311A040917001509171016091720170917301CD
S11311B080E091E00E949506F3CF4F925F926F9288
S11311C07F928F929F92AF92BF92CF92DF92EF92D3
S11311D0FF92CF93DF93CDB7DEB72A970FB6F8947B
S11311E0DEBF0FBECDBF9A878987DC0159964D9328
S11311F05D936D937C935C979A01AB015D966D91C1
S11312007D918D919C9190970E94D90F6B017C01E7
S1131210E985FA8561A372A383A394A380818111D4
S113122005C12181328143815481C701B6010E94E5
S1131230A3114B015C01A985BA851D966D937D931D
S11312408D939C935097D3964D905D906D907C9028
S1131250D697D7962D913D914D915C91DA97C70120
S1131260B6010E94D90FE985FA8525813681478127
S113127050850E94A311A30192010E94A311A98584
S1131280BA8551962D913D914D915C9154970E9450
S1131290DA0F69837A838B839C83E985FA85618B72
S11312A0728B838B948B25A136A147A150A5C701CE
S11312B0B6010E94D90FA985BA8519962D913D9141
S11312C04D915C911C970E94A311A30192010E946D
S11312D04B102B013C01E985FA85658B768B878B56
S11312E0908FC5A2D6A2E7A2F0A629813A814B81AC
S11312F05C81C501B4010E94DA0FA30192010E942E
S1131300DA0FF62EE72ED82EC92E862F9E2DAD2D60
S1131310BC2DE985FA8585A796A7A7A7B0AB91A8A8
S1131320A92CB12CB5010B2C000C880B990B0E9435
S1131330EE109B01AC016F2D7E2D8D2D9C2D0E94F6
S11313409E1118165CF4692D70E080E090E00E9414
S1131350EC10F62EE72ED82EC92E1EC0662777274E
S11313606A197B09072E000C880B990B0E94EE105A
S1131370862E972EA82EB92E262F372F482F592F79
S11313806F2D7E2D8D2D9C2D0E944610882324F4D4
S1131390F82CE92CDA2CCB2C20E030E0A9016F2DBD
S11313A07E2D8D2D9C2D0E949E11882354F06F2D2F
S11313B07E2D8D2D9C2D0E9410120E94BD1067BDA4
S11313C001C017BC6F2D7E2D8D2D9C2D0E941012F7
S11313D09B01AC01E985FA85ED5BFF4F6083718366
S11313E082839383A985BA859D966D917D918D9114
S11313F09C91D0970E94D90F9B01AC01E985FA8595
S1131400FF966083718382839383E985FA8563AD54
S113141074AD85AD96AD0E94A311A985BA85D79602
S11314206D937D938D939C93DA97FFC0A985BA85BC
S113143095968D919D910D90BC91A02D89839A8351
S1131440AB83BC839C01AD01C701B6010E94D90FD7
S1131450E985FA8521813281438154810E94A31157
S11314604B015C01A985BA851D966D937D938D937F
S11314709C935097D3964D905D906D907C90D697A9
S113148015962D913D914D915C911897C701B60128
S11314900E94A311A30192010E94A3116D837E8374
S11314A08F839887E985FA85618B728B838B948B04
S11314B029813A814B815C81CA01B9010E94DA0F0A
S11314C09B01AC01C701B6010E94D90FA985BA8559
S11314D099962D913D914D915C919C970E94DA0FC4
S11314E0E985FA8521853285438554850E94A311B7
S11314F0A30192010E944B102B013C01A985BA85DE
S113150055966D937D938D939C9358972D813E8131
S11315104F815885C501B4010E94DA0FA3019201DD
S11315200E94DA0FE985FA8525A536A547A550A9B5
S11315300E94DA0FB62EA72E982E892E862F9A2D6A
S1131540A92DB82DE985FA8585A796A7A7A7B0ABDD
S113155089819A81AB81BC8181A792A7A3A7B4A7F3
S1131560C5A2D6A2E7A2F0A6D1A8ED2CF12CB70112
S11315700F2C000C880B990B0E94EE109B01AC0100
S11315806B2D7A2D892D982D0E949E1118165CF4CE
S11315906D2D70E080E090E00E94EC10B62EA72E36
S11315A0982E892E1EC0662777276E197F09072E6D
S11315B0000C880B990B0E94EE10C62ED72EE82E35
S11315C0F92E262F372F482F592F6B2D7A2D892D41
S11315D0982D0E944610882324F4BC2CAD2C9E2CFC
S11315E08F2C20E030E0A9016B2D7A2D892D982DC8
S11315F00E949E11882354F06B2D7A2D892D982DED
S11316000E9410120E94BD1067BD01C017BC6B2D53
S11316107A2D892D982D0E941012E985FA85ED5BAB
S1131620FF4F60837183828393832A960FB6F89465
S1131630DEBF0FBECDBFDF91CF91FF90EF90DF9063
S1131640CF90BF90AF909F908F907F906F905F905E
S11316504F9008954091660150916701609168012F
S11316607091690188E191E00E94DD080895519A22
S1131670509881110DC082E08093C00088E180936E
S1131680C10086E08093C2007093C5006093C400DB
S11316900895CF93DF93811111C0FB0190819923A9
S11316A069F0DB011196E0ECF0E0C6ECD0E080815B
S11316B085FFFDCF98839D919111F9CFDF91CF9153
S11316C00895CF93DF93811114C0FB018491882383
S11316D081F0A0ECB0E0C6ECD0E0FB018C9185FF7A
S11316E0FDCF6F5F7F4FE491E883FB01849181110B
S11316F0F4CFDF91CF910895EF92FF920F931F9350
S1131700CF93DF93C82F7B01142F0E94B60F0E9442
S1131710B20F883031F0803121F081E0809376017E
S113172033C088E70E94CB0F0E94B20F883131F09A
S1131730803221F081E08093760126C08C2F0E94B4
S1131740CB0F0E94B20F883219F4111107C01AC0CE
S11317508033D9F381E08093760116C0E7011150FC
S1131760012F10E00F5F1F4F0E0D1F1D89910E9466
S1131770CB0F0E94B20F883211F0803319F4C017D6
S1131780D107A1F7109276010E94C20FDF91CF9189
S11317901F910F91FF90EF900895CF93DF931F92C5
S11317A0CDB7DEB7898341E0BE016F5F7F4F80E034
S11317B00E947C0B0F90DF91CF910895CF93DF931C
S11317C081E20E94CD0B80E00E94CD0B8FE70E9446
S11317D0CD0B82E20E94CD0B80E00E94CD0B87E00E
S11317E00E94CD0BC0E0D0E0BE0162957295707F7F
S11317F07627607F762760587E4F40E180E40E9420
S11318007C0B2196C034D10579F7DF91CF910895EF
S1131810882314F08093770108959091780190348F
S113182010F4809378010895CF93C62F0E94080C7A
S11318308C2F0E940D0CCF9108950E94A50F8EEA63
S11318400E94CD0B85ED0E94CD0B80EF0E94CD0B45
S113185088EA0E94CD0B8FE30E94CD0B83ED0E949A
S1131860CD0B80E00E94CD0B8DE80E94CD0B84E16E
S11318700E94CD0B80E40E94CD0B80E20E94CD0B30
S113188080E00E94CD0B81EA0E94CD0B88EC0E947F
S1131890CD0B8AED0E94CD0B82E10E94CD0B81E835
S11318A00E94CD0B8FEF0E94CD0B89ED0E94CD0BD2
S11318B081EF0E94CD0B8BED0E94CD0B80E20E9444
S11318C0CD0B84EA0E94CD0B86EA0E94CD0B8EE2FA
S11318D00E94CD0B8FEA0E94CD0B60E080E00E9455
S11318E0140CE6E7F1E086EA8383108617821682F9
S11318F0128211820895CF93DF93C62FD42F0E94B2
S1131900140CE6E7F1E0228126952695269581813F
S113191090E030E8239F800D911D1124FC01E058D4
S1131920FE4F2081DF3F71F4C77041E050E060E07A
S113193070E004C0440F551F661F771FCA95D2F785
S1131940422B0EC0C77041E050E060E070E004C07C
S1131950440F551F661F771FCA95D2F7409542233F
S1131960FC01E058FE4F4083DF91CF9108959F9290
S1131970AF92BF92CF92DF92EF92FF920F931F9399
S1131980CF93DF9388230CF4C0C044230CF4BDC070
S1131990603408F0BAC0203408F0B7C02F5FA22E1C
S11319A0A61A4F5FD42ED81A962F9770962E991A8E
S11319B0EA2CF12C28E030E0291B3109E216F30669
S11319C06CF428E030E02E193F09CFEFD0E002C0DC
S11319D0D595C7952A95E2F7BA2C04C028E0B22E13
S11319E0B91ACFEFC82ED0E002C0CC0FDD1F9A95F4
S11319F0E2F71C2F692D0E94140CDD2009F441C06C
S1131A00E6E7F1E02181428146954695469580E8D6
S1131A10489FA00111246D2D620FC095CA01820F49
S1131A20911DFC01E058FE4F30810F3F11F4312B22
S1131A3001C03C23FC01E058FE4F30832F5F62134A
S1131A40EDCF609377011DC0185F612F8C2D0E942C
S1131A50140CDD20D1F099812A81269526952695AE
S1131A6080E8289F90011124892F8D0D20583E4F26
S1131A70F901E90FF11D00839F5F8913F9CF898371
S1131A8004C0192DB918C6E7D1E08B2D810F282F7A
S1131A9030E0A901485F5F4FE416F506ACF68A15FD
S1131AA0A0F5E21AF30ACFEFD0E002C0CC0FDD1F9D
S1131AB0EA94E2F7C09568E0610F8C2D0E94140C43
S1131AC0DD2019F1E6E7F1E0218142814695469552
S1131AD0469580E8489FA0011124D20E6C2F609592
S1131AE0CA01820F911DFC01E058FE4F30810F3F67
S1131AF011F43C2B01C03623FC01E058FE4F308327
S1131B002F5FD212EDCFD0927701DF91CF911F9149
S1131B100F91FF90EF90DF90CF90BF90AF909F9088
S1131B200895DF92EF92FF920F931F93CF93DF9369
S1131B3088230CF449C044230CF446C0603408F0F4
S1131B4043C0203408F040C0D02FF22ED42E162FDC
S1131B50E82E4817F8F4082FC42F4D2F612F8C2F2F
S1131B600E947B0CCF5F0C17C0F7DE14B0F40E2D6F
S1131B70CD2D4D2F6F2D8C2F0E947B0CCF5F0C171A
S1131B80C0F7F11668F016C00D2F4D2D8D2D0E9453
S1131B90B70C1AC0042FC82FE0CF0D2DCE2DE9CFDE
S1131BA00D2F212F4E2D6F2D8E2D0E94B70C212F1E
S1131BB06F2DEACF0D2F2F2D4E2D612F8E2D0E94CC
S1131BC0B70C2F2D612FE0CFDF91CF911F910F9193
S1131BD0FF90EF90DF9008956623E4F04034D0F452
S1131BE02230C0F4E6E7F1E095838483668347837B
S1131BF050E041505109CA0199230CF40796959578
S1131C00879595958795959587958F5F80937E01A8
S1131C1020937F0108952F923F924F925F926F928B
S1131C207F928F929F92AF92BF92CF92DF92EF9268
S1131C30FF920F931F93CF93DF9300D01F92CDB7E2
S1131C40DEB7E6E7F1E03180228090852681299F86
S1131C50900111242F5F3F4F8052829FA001839FE8
S1131C60500D11245A8349834A015FEF851A950A5E
S1131C700480F581E02DA981BA81EA0FFB1FC4908D
S1131C80B22DB7706B2E992309F476C0D22C10E0D4
S1131C9088E090E05C01AB1AB1086D2D832D0E94A1
S1131CA0140C9401210F311DD9011197CC2009F492
S1131CB046C0E0907A01F0907B0160917E0170E073
S1131CC000917F0140917801469546954695E0E85C
S1131CD04E9FA0011124709077012E0D3F1D5C2CA6
S1131CE0570C40585E4FF901849190E0062C02C0D5
S1131CF0880F991F0A94E2F7482E112371F0F70117
S1131D00EA0FFB1FE491F0E00A2C02C0F595E79579
S1131D100A94E2F74E2AA60FB71F013029F4FA01FC
S1131D20E70DF11D8081482AFA01E70DF11D40827B
S1131D307394260F371F5710D6CF50927701809196
S1131D407F01811110C0E0917801E695E695E69552
S1131D508091770120E8E29FF0011124E058FE4FC2
S1131D60E80FF11D108238E0D30E1F5F80917E01D1
S1131D70181708F492CF02C0D22C10E0222D22951D
S1131D8026952695237030E040917D014295469535
S1131D9046954370822D90E0840F911D28173907D2
S1131DA009F464C06D2D832D0E94140C89819A81DD
S1131DB0810F911DCC2009F442C0A6E7B1E0129630
S1131DC02C91129726952695269540E8249F9001FC
S1131DD011241996FC90199711960C911197189645
S1131DE04C91189750E01496ED91FC911597E80FDB
S1131DF0F91F102F1C0D68E070E066197109590174
S1131E00A00EB11CC50180589E4FDC01EC9084915A
S1131E1090E0062E02C0959587950A94E2F78E29E4
S1131E20B1E0FB1201C08E29D501A058BE4F8C939E
S1131E300F5FE40FF51F0113E2CF10937701809138
S1131E407F01811113C0A6E7B1E01296EC911297BD
S1131E50E695E695E69511968C9120E8E29FF001CF
S1131E601124E058FE4FE80FF11D108281E0830D2C
S1131E70622D8C0D0E94140C0F900F900F90DF9127
S1131E80CF911F910F91FF90EF90DF90CF90BF9073
S1131E90AF909F908F907F906F905F904F903F9006
S1131EA02F9008950F931F93CF93DF93EC018881B4
S1131EB08823D9F0E6E7F1E09181268130E0290F0B
S1131EC0311D203831058CF421968F0109C0F801A9
S1131ED09181268130E0290F311D203831052CF401
S1131EE00E940B0E89918111F2CFDF91CF911F9146
S1131EF00F9108950F931F93CF93DF93EC012196D5
S1131F00FC0184918823E1F0E6E7F1E091812681E8
S1131F1030E0290F311D2038310594F48F010AC0B7
S1131F202196F8019181268130E0290F311D203856
S1131F30310534F40E940B0EFE0184918111F0CF1F
S1131F40DF91CF911F910F9108953C9A3D9A449A45
S1131F50459A1092B90082E08093B80084E080939F
S1131F60BC0008958091B900887F089584EA809325
S1131F70BC00ECEBF0E080818823ECF78091B900A1
S1131F80887F089585ED8093BC00ECEBF0E08081C0
S1131F9084FDFDCF08958093BB0084E88093BC004A
S1131FA0ECEBF0E080818823ECF78091B900887F26
S1131FB008955058BB27AA270E94F10F0C9464116E
S1131FC00E94561138F00E945D1120F039F49F3FB1
S1131FD019F426F40C9453110EF4E095E7FB0C94D9
S1131FE04D11E92F0E94751158F3BA176207730750
S1131FF08407950720F079F4A6F50C9497110EF454
S1132000E0950B2EBA2FA02D0B01B90190010C0104
S1132010CA01A0011124FF27591B99F0593F50F41C
S1132020503E68F11A16F040A22F232F342F442774
S1132030585FF3CF469537952795A795F04053956C
S1132040C9F77EF41F16BA0B620B730B840BBAF03C
S11320509150A1F0FF0FBB1F661F771F881FC2F7A7
S11320600EC0BA0F621F731F841F48F487957795BB
S11320706795B795F7959E3F08F0B0CF9395880F75
S113208008F09927EE0F9795879508950E942911D6
S113209008F481E008950E945F100C9464110E947A
S11320A05D1158F00E94561140F029F45F3F29F069
S11320B00C944D1151110C9498110C9453110E94CD
S11320C0751168F39923B1F3552391F3951B550BBF
S11320D0BB27AA2762177307840738F09F5F5F4FF7
S11320E0220F331F441FAA1FA9F335D00E2E3AF036
S11320F0E0E832D091505040E695001CCAF72BD04E
S1132100FE2F29D0660F771F881FBB1F261737079E
S11321104807AB07B0E809F0BB0B802DBF01FF27D0
S113212093585F4F3AF09E3F510578F00C944D114F
S11321300C9498115F3FE4F3983ED4F38695779519
S11321406795B795F7959F5FC9F7880F911D969589
S1132150879597F90895E1E0660F771F881FBB1FE5
S1132160621773078407BA0720F0621B730B840B92
S1132170BA0BEE1F88F7E09508950E947D1188F050
S11321809F5798F0B92F9927B751B0F0E1F0660F37
S1132190771F881F991F1AF0BA95C9F714C0B13078
S11321A091F00E949711B1E008950C949711672F54
S11321B0782F8827B85F39F0B93FCCF386957795A7
S11321C06795B395D9F73EF4909580957095619590
S11321D07F4F8F4F9F4F0895E89409C097FB3EF4BB
S11321E090958095709561957F4F8F4F9F4F992360
S11321F0A9F0F92F96E9BB279395F69587957795DE
S11322006795B795F111F8CFFAF4BB0F11F460FF9D
S11322101BC06F5F7F4F8F4F9F4F16C0882311F0F5
S113222096E911C0772321F09EE8872F762F05C009
S1132230662371F096E8862F70E060E02AF09A95A4
S1132240660F771F881FDAF7880F9695879597F999
S11322500895990F0008550FAA0BE0E8FEEF161633
S11322601706E807F907C0F012161306E407F50786
S113227098F0621B730B840B950B39F40A2661F0FA
S1132280232B242B252B21F408950A2609F4A1409D
S1132290A6958FEF811D811D089597F99F6780E8AA
S11322A070E060E008959FEF80EC089500240A94A4
S11322B01616170618060906089500240A9412161D
S11322C01306140605060895092E0394000C11F450
S11322D0882352F0BB0F40F4BF2B11F460FF04C0FD
S11322E06F5F7F4F8F4F9F4F089557FD9058440F56
S11322F0551F59F05F3F71F04795880F97FB991F61
S113230061F09F3F79F0879508951216130614061D
S1132310551FF2CF4695F1DF08C0161617061806AA
S1132320991FF1CF86957105610508940895E89485
S1132330BB2766277727CB0197F908950E942911B7
S113234008F48FEF08950E94B6110C9464110E9452
S1132350561138F00E945D1120F0952311F00C9471
S11323604D110C94531111240C9498110E94751161
S113237070F3959FC1F3950F50E0551F629FF001D4
S1132380729FBB27F00DB11D639FAA27F00DB11DED
S1132390AA1F649F6627B00DA11D661F829F222776
S11323A0B00DA11D621F739FB00DA11D621F839FFD
S11323B0A00D611D221F749F3327A00D611D231FD3
S11323C0849F600D211D822F762F6A2F11249F5721
S11323D050409AF0F1F088234AF0EE0FFF1FBB1F24
S11323E0661F771F881F91505040A9F79E3F5105E3
S11323F080F00C944D110C9498115F3FE4F3983ED7
S1132400D4F3869577956795B795F795E7959F5F8C
S1132410C1F7FE2B880F911D9695879597F908951E
S11324200E947D11E8F09E37E8F09639B8F49E38A2
S113243048F4672F782F8827985FF9CF869577958A
S1132440679593959539D0F3B62FB1706B0F711DC5
S1132450811D20F487957795679593950C94341294
S11324600C944F120C949811882371F4772321F063
S11324709850872B762F07C0662311F499270DC037
S11324809051862B70E060E02AF09A95660F771FD2
S1132490881FDAF7880F9695879597F908959F3FD7
S11324A031F0915020F4879577956795B795880F0B
S11324B0911D9695879597F90895A0E1B0E0E3E61C
S11324C0F2E10C94DA157C011B016A01FC0117820C
S11324D01682838181FF44C39E012F5F3F4F3901E0
S11324E0F7019381F10193FD859193FF81911F0180
S11324F0882309F431C3853239F493FD859193FF20
S113250081911F01853239F4B70190E00E94FF16D2
S113251056016501E5CF10E0512C912CFFE1F9152E
S1132520D8F08B3279F038F4803279F08332A1F428
S1132530F92DF0612EC08D3261F0803369F4292DBC
S113254021602DC0392D3260932E892D8460982E00
S11325502AC0E92DE86015C097FC2DC020ED280F96
S11325602A3088F496FE06C03AE0139F200D112409
S1132570122F19C08AE0589E200D1124522EE92DE5
S1132580E0629E2E10C08E3231F496FCE5C2F92D25
S1132590F0649F2E08C08C3621F4292D2068922ED9
S11325A002C0883641F4F10193FD859193FF819136
S11325B01F018111B3CF9BEB980F933020F4992D19
S11325C09061805E07C09BE9980F933008F066C164
S11325D0992D9F7E96FF16E09F73992E853619F4E8
S11325E09064992E08C0863621F4392F3068932ED2
S11325F002C01111115097FE07C01C3350F444243B
S11326004394410E27E00BC0183038F027E017E060
S113261005C027E09CE3492E02C0212F412C56011E
S113262084E0A80EB11CF6016081718182819381DE
S1132630042DA3010E9411166C01F981FC87F0FF9F
S113264002C0F3FF06C091FC06C092FE06C000E281
S113265005C00DE203C00BE201C000E08C858C7064
S113266019F001115AC29BC297FE10C04C0CFC8594
S1132670F4FF04C08A81813309F44A94141474F574
S113268028E0241578F588E0482E2CC096FC2AC052
S1132690812F90E08C159D059CF03CEFC3163FEF15
S11326A0D30674F0892D8068982E0AC0E2E0F0E029
S11326B0EC0FFD1FE10FF11D8081803319F41150DF
S11326C01111F4CF97FE0EC044244394410E812F80
S11326D090E0C816D9062CF41C1904C04424439471
S11326E001C010E097FE06C01C141D0434F4C6019A
S11326F0019605C085E090E002C081E090E0011100
S11327000196112331F0212F30E02F5F3F4F820FCC
S1132710931F252D30E08217930714F4581A01C033
S1132720512C892D897049F4552039F0B70180E284
S113273090E00E94FF165A94F7CF002329F0B701C6
S1132740802F90E00E94FF1693FC09C0552039F0B9
S1132750B70180E390E00E94FF165A94F7CF97FEEA
S11327604CC04601D7FE02C0812C912CC6018819A9
S11327709909F301E80FF91FFE87ED8796012419E3
S11327803109388B2F87012F10E01195019511091C
S11327903FEF8316930629F4B7018EE290E00E947E
S11327A0FF16C814D9044CF08F85988988159905AB
S11327B024F4ED85FE85818101C080E3F1E08F1A68
S11327C091082D853E852F5F3F4F3E872D878016CC
S11327D091062CF0B70190E00E94FF16D9CFC814DF
S11327E0D90441F49A81963320F4953319F43C8545
S11327F034FF81E3B70190E04EC08A81813319F040
S11328009C859F7E9C87B70190E00E94FF16111162
S113281005C094FC18C085E690E017C0B7018EE2AD
S113282090E00E94FF161E5F82E001E0080FF301B2
S1132830E80FF11D8081B70190E00E94FF16802F00
S11328400113F3CFE6CF85E490E0B7010E94FF16B1
S1132850D7FC06C0C114D10441F4EC85E4FF05C0E3
S1132860D194C194D1088DE201C08BE2B70190E00C
S11328700E94FF1680E32AE0C216D1042CF08F5F79
S1132880FAE0CF1AD108F7CFB70190E00E94FF1603
S1132890B701C601C0960E94FF1654C1833631F0B9
S11328A0833779F0833509F056C020C0560132E0F1
S11328B0A30EB11CF6018081898301E010E063015D
S11328C012C05601F2E0AF0EB11CF601C080D180F7
S11328D096FE03C0612F70E002C06FEF7FEFC60168
S11328E00E94F4168C01F92DFF7714C0560122E0E2
S11328F0A20EB11CF601C080D18096FE03C0612FE8
S113290070E002C06FEF7FEFC6010E94E9168C01F0
S1132910F92DF0689F2EF3FD1AC0852D90E008175D
S11329201907A8F4B70180E290E00E94FF165A94B8
S1132930F4CFF60197FC859197FE81916F01B70161
S113294090E00E94FF1651105A940150110901158C
S1132950110579F7F7C0843611F0893661F556010F
S113296097FE09C024E0A20EB11CF60160817181BA
S1132970828193810AC0F2E0AF0EB11CF60160813E
S11329807181072E000C880B990BF92DFF769F2E71
S113299097FF09C090958095709561957F4F8F4FF3
S11329A09F4FF0689F2E2AE030E0A3010E945D173C
S11329B0C82EC6183FC0092D853721F40F7E2AE0A2
S11329C030E01DC0097F8F3691F018F4883559F036
S11329D0C3C0803719F0883711F0BEC0006104FF0E
S11329E009C0046007C094FE08C0066006C028E061
S11329F030E005C020E130E002C020E132E05601C1
S1132A0007FF09C084E0A80EB11CF6016081718142
S1132A108281938108C0F2E0AF0EB11CF60160819F
S1132A20718180E090E0A3010E945D17C82EC61852
S1132A300F77902E96FE0BC0092D0E7FC11650F411
S1132A4094FE0AC092FC08C0092D0E7E05C0DC2C41
S1132A50092D03C0DC2C01C0D12E04FF0DC0FE01E2
S1132A60EC0DF11D8081803311F4097E09C002FF51
S1132A7006C0D394D39404C0802F867809F0D394ED
S1132A8003FD11C000FF06C01C2DD51480F4150DE4
S1132A901D190DC0D51458F4B70180E290E00E94CE
S1132AA0FF16D394F7CFD51410F45D1801C0512C40
S1132AB004FF10C0B70180E390E00E94FF1602FFFC
S1132AC017C001FD03C088E790E002C088E590E0EC
S1132AD0B7010CC0802F867859F001FF02C08BE249
S1132AE001C080E207FD8DE2B70190E00E94FF166D
S1132AF0C11638F4B70180E390E00E94FF1611502C
S1132B00F7CFCA94F301EC0DF11D8081B70190E079
S1132B100E94FF16C110F5CF15C0F4E0F51560F55D
S1132B2084E0581A93FE1FC0011127C02C8523FF8F
S1132B302AC008E610E0392D3071932EF8018491F3
S1132B40811124C0552009F4E4CCB70180E290E05F
S1132B500E94FF165A94F6CFF7018681978126C00A
S1132B608FEF9FEF23C0B70180E290E00E94FF1631
S1132B705A945110F8CFD8CF512CB701802F90E040
S1132B800E94FF16D3CF0CE610E0D5CF91108052EF
S1132B90B70190E00E94FF160F5F1F4FCFCF23E0D5
S1132BA0251510F483E0BDCF512CC0CF6096E2E12F
S1132BB00C94F6152F923F924F925F926F927F92F0
S1132BC08F929F92AF92BF92CF92DF92EF92FF9239
S1132BD00F931F93CF93DF93CDB7DEB7CA1BDB0BE5
S1132BE00FB6F894DEBF0FBECDBF09942A8839888A
S1132BF048885F846E847D848C849B84AA84B98491
S1132C00C884DF80EE80FD800C811B81AA81B9819C
S1132C10CE0FD11D0FB6F894DEBF0FBECDBFED01B0
S1132C200895283008F027E03327DA01990F311D81
S1132C3087FD916000966105710539F432602E5F5D
S1132C403D9330E32A95E1F708959F3F30F08038B3
S1132C507105610509F03C5F3C5F3D93913008F0DC
S1132C608068911DDF93CF931F930F93FF92EF9290
S1132C70192F987F9695E92F96959695E90FFF273A
S1132C80E653FF4F99273327EE24FF24A701E701DA
S1132C9005900894079428F4360FE71EF81E491F80
S1132CA0511D660F771F881F991F0694A1F7059081
S1132CB0079428F4E70EF81E491F561FC11D770F0D
S1132CC0881F991F661F0694A1F70590079428F49E
S1132CD0F80E491F561FC71FD11D880F991F661F65
S1132CE0771F0694A1F70590079420F4490F561F07
S1132CF0C71FD81F990F661F771F881F0694A9F74F
S1132D0084911095177041F0D695C79557954795BE
S1132D10F794E7941A95C1F7E0E7F0E0689415900A
S1132D20159135916591959105907FE27395E11820
S1132D30F10A430B560BC90BD009C0F7E10CF11E85
S1132D40431F561FC91FD01D7EF4703311F48A959A
S1132D50E6CFE894015030F0080F0AF40027021778
S1132D6008F4202F2395022F7A3328F079E37D93FA
S1132D702A95E9F710C07D932A9589F606949795CC
S1132D806795379517951794E118F10A430B560B7D
S1132D90C90BD00998F023957E9173957A3308F086
S1132DA070E37C932013B8F77E9170617D9330F0CB
S1132DB0839571E37D9370E32A95E1F71124EF90F5
S1132DC0FF900F911F91CF91DF91992787FD9095E7
S1132DD00895FC010590615070400110D8F780956A
S1132DE090958E0F9F1F0895FC01615070400190D3
S1132DF00110D8F7809590958E0F9F1F08950F931B
S1132E001F93CF93DF93FB01238121FD03C08FEF39
S1132E109FEF2CC022FF16C0468157812481358143
S1132E204217530744F4A081B1819D012F5F3F4FA6
S1132E30318320838C93268137812F5F3F4F3783E3
S1132E40268314C08B01EC01FB010084F185E02D85
S1132E500995892BE1F6D80116968D919C911797C7
S1132E60019617969C938E931697CE01DF91CF917E
S1132E701F910F910895AEE0B0E0E1E4F7E10C9406
S1132E80E8150D891E898EE08C831A8309838FEFE0
S1132E909FE79E838D83AE01475E5F4F6F89788D78
S1132EA0CE0101960E945D12EF81F885E00FF11FBB
S1132EB010822E96E4E00C940416FA01AA27283016
S1132EC051F1203181F1E8946F936E7F6E5F7F4FF3
S1132ED08F4F9F4FAF4FB1E03ED0B4E03CD0670F6F
S1132EE0781F891F9A1FA11D680F791F8A1F911DC2
S1132EF0A11D6A0F711D811D911DA11D20D009F412
S1132F0068943F912AE0269F11243019305D319353
S1132F10DEF6CF010895462F4770405D4193B3E03C
S1132F200FD0C9F7F6CF462F4F70405D4A3318F0E3
S1132F30495D31FD4052419302D0A9F7EACFB4E094
S1132F40A6959795879577956795BA95C9F700974C
S1132F506105710508959B01AC010A2E06945795ED
S1132F60479537952795BA95C9F7620F731F841F44
S10D2F70951FA01D0895F894FFCFEB
S1132F7A64000000000050086400000000002A0BEE
S1132F8AD007000000001F06000855323F8748F2A8
S1132F9A3BC442834100000000000000000000001E
S1132FAA00000000000000204200000000000000B1
S1132FBA000000000000000000FF00CDCCCC3D0062
S1132FCA0000003CBFB73F000000000000000025DD
S1132FDA00020000000000000000000000000000E1
S9030000FC
